:02000000652871
:0E0006008312031339088A00380882000800AC
:1000140003208A110A128000840AB80A0319B90A53
:08002400F003031D0A28080087
:10002C00831203133E0886003C08BA003D08BB004F
:10003C0080303B06F00080307002031D2728003012
:10004C003A02031C622808182C2864283A08203E1F
:10005C008400000887000B30FB002630FC005D306C
:10006C00FD00FD0B3728FC0B3728FB0B3728000055
:10007C0000008030F00080303B067002031D4828E1
:10008C003A08043C031C4E28061A4E280616861203
:10009C008030F00080303B067002031D57283A0870
:1000AC00043C031C5D2886185D288614061101305B
:0E00BC00BA02031CBB031E2806158616080098
:1000CA0083120313A0010130A1000230A200033001
:1000DA00A3000430A4000530A5000630A6000730AE
:1000EA00A7000830A8000930A9001030AA00113072
:1000FA00AB001230AC001330AD001430AE00153036
:10010A00AF001630B0001730B1001830B200193005
:10011A00B3002030B4002130B5002230B6002330BD
:10012A00B7008316860185018701FF308800831294
:10013A000514081CB1281730BC000030BD00E73098
:10014A00BE00BF0116200F30BC000030BD00BD301C
:10015A00BE00BF01162031290510051420088700AA
:10016A00BD30860008183129881CF5280608BD3AD2
:10017A00031DF528081CC9281730BC000030BD0033
:10018A00BD30BE00BF0116200330BA000030BB00EC
:10019A0080303B06F00080307002031DD628003004
:1001AA003A02031CF228061186143A08203E8400FB
:1001BA00000887000B30FB002630FC005D30FD0094
:1001CA00FD0BE528FC0BE528FB0BE52800000000E9
:1001DA000130BA02031CBB03CD28E7308600302960
:1001EA00881830290608E73A031D3029081C052912
:1001FA000F30BC000030BD00E730BE00BF01162042
:10020A000330BA000030BB0080303B06F00080307B
:10021A007002031D122900303A02031C2E2986128D
:10022A0006163A08203E8400000887000B30FB00BF
:10023A002630FC005D30FD00FD0B2129FC0B212935
:10024A00FB0B2129000000000130BA02031CBB038A
:0C025A000929BD308600B7289E283229F3
:02400E004A2F37
:00000001FF
